{
  "contractName": "Election",
  "abi": [
    {
      "inputs": [],
      "payable": false,
      "stateMutability": "nonpayable",
      "type": "constructor"
    },
    {
      "anonymous": false,
      "inputs": [
        {
          "indexed": true,
          "internalType": "uint256",
          "name": "_candidateId",
          "type": "uint256"
        }
      ],
      "name": "votedEvent",
      "type": "event"
    },
    {
      "constant": true,
      "inputs": [
        {
          "internalType": "uint256",
          "name": "",
          "type": "uint256"
        }
      ],
      "name": "candidates",
      "outputs": [
        {
          "internalType": "uint256",
          "name": "id",
          "type": "uint256"
        },
        {
          "internalType": "string",
          "name": "name",
          "type": "string"
        },
        {
          "internalType": "string",
          "name": "party",
          "type": "string"
        },
        {
          "internalType": "uint256",
          "name": "voteCount",
          "type": "uint256"
        }
      ],
      "payable": false,
      "stateMutability": "view",
      "type": "function"
    },
    {
      "constant": true,
      "inputs": [],
      "name": "candidatesCount",
      "outputs": [
        {
          "internalType": "uint256",
          "name": "",
          "type": "uint256"
        }
      ],
      "payable": false,
      "stateMutability": "view",
      "type": "function"
    },
    {
      "constant": true,
      "inputs": [
        {
          "internalType": "address",
          "name": "",
          "type": "address"
        }
      ],
      "name": "voters",
      "outputs": [
        {
          "internalType": "bool",
          "name": "",
          "type": "bool"
        }
      ],
      "payable": false,
      "stateMutability": "view",
      "type": "function"
    },
    {
      "constant": false,
      "inputs": [
        {
          "internalType": "uint256",
          "name": "_candidateId",
          "type": "uint256"
        }
      ],
      "name": "vote",
      "outputs": [],
      "payable": false,
      "stateMutability": "nonpayable",
      "type": "function"
    }
  ],
  "bytecode": "0x608060405234801561001057600080fd5b5061008b6040518060400160405280600481526020017f52616a75000000000000000000000000000000000000000000000000000000008152506040518060400160405280601781526020017f42616e676c6164657368204177616d69204c656167756500000000000000000081525061027860201b60201c565b6101056040518060400160405280600681526020017f73756c74616e00000000000000000000000000000000000000000000000000008152506040518060400160405280601c81526020017f42616e676c6164657368204e6174696f6e616c6973742050617274790000000081525061027860201b60201c565b61017f6040518060400160405280600881526020017f536f6c61696d616e0000000000000000000000000000000000000000000000008152506040518060400160405280600c81526020017f4a6174697961205061727479000000000000000000000000000000000000000081525061027860201b60201c565b6101f96040518060400160405280600481526020017f52656a61000000000000000000000000000000000000000000000000000000008152506040518060400160405280601781526020017f4a61746979612053616d616a74616e7472696b2044616c00000000000000000081525061027860201b60201c565b6102736040518060400160405280600881526020017f416264756c6c61680000000000000000000000000000000000000000000000008152506040518060400160405280601281526020017f496e646570656e64656e7473205061727479000000000000000000000000000081525061027860201b60201c565b6103bd565b6002600081548092919060010191905055506040518060800160405280600254815260200183815260200182815260200160008152506001600060025481526020019081526020016000206000820151816000015560208201518160010190805190602001906102e9929190610318565b506040820151816002019080519060200190610306929190610318565b50606082015181600301559050505050565b828054600181600116156101000203166002900490600052602060002090601f016020900481019282601f1061035957805160ff1916838001178555610387565b82800160010185558215610387579182015b8281111561038657825182559160200191906001019061036b565b5b5090506103949190610398565b5090565b6103ba91905b808211156103b657600081600090555060010161039e565b5090565b90565b6104f3806103cc6000396000f3fe608060405234801561001057600080fd5b506004361061004c5760003560e01c80630121b93f146100515780632d35a8a21461007f5780633477ee2e1461009d578063a3ec138d146101be575b600080fd5b61007d6004803603602081101561006757600080fd5b810190808035906020019092919050505061021a565b005b610087610338565b6040518082815260200191505060405180910390f35b6100c9600480360360208110156100b357600080fd5b810190808035906020019092919050505061033e565b604051808581526020018060200180602001848152602001838103835286818151815260200191508051906020019080838360005b838110156101195780820151818401526020810190506100fe565b50505050905090810190601f1680156101465780820380516001836020036101000a031916815260200191505b50838103825285818151815260200191508051906020019080838360005b8381101561017f578082015181840152602081019050610164565b50505050905090810190601f1680156101ac5780820380516001836020036101000a031916815260200191505b50965050505050505060405180910390f35b610200600480360360208110156101d457600080fd5b81019080803573ffffffffffffffffffffffffffffffffffffffff16906020019092919050505061049e565b604051808215151515815260200191505060405180910390f35b6000803373ffffffffffffffffffffffffffffffffffffffff1673ffffffffffffffffffffffffffffffffffffffff16815260200190815260200160002060009054906101000a900460ff161561027057600080fd5b60008111801561028257506002548111155b61028b57600080fd5b60016000803373ffffffffffffffffffffffffffffffffffffffff1673ffffffffffffffffffffffffffffffffffffffff16815260200190815260200160002060006101000a81548160ff0219169083151502179055506001600082815260200190815260200160002060030160008154809291906001019190505550807ffff3c900d938d21d0990d786e819f29b8d05c1ef587b462b939609625b684b1660405160405180910390a250565b60025481565b6001602052806000526040600020600091509050806000015490806001018054600181600116156101000203166002900480601f0160208091040260200160405190810160405280929190818152602001828054600181600116156101000203166002900480156103f05780601f106103c5576101008083540402835291602001916103f0565b820191906000526020600020905b8154815290600101906020018083116103d357829003601f168201915b505050505090806002018054600181600116156101000203166002900480601f01602080910402602001604051908101604052809291908181526020018280546001816001161561010002031660029004801561048e5780601f106104635761010080835404028352916020019161048e565b820191906000526020600020905b81548152906001019060200180831161047157829003601f168201915b5050505050908060030154905084565b60006020528060005260406000206000915054906101000a900460ff168156fea265627a7a7231582060d28e6c4c21619fcf5ce719a353e7a3b7610da4fb3dbbb95758a66b313b113664736f6c63430005100032",
  "source": "pragma solidity >=0.5.16;\n\ncontract Election {\n    // Model a Candidate\n    struct Candidate {\n        uint id;\n        string name;\n        string party;\n        uint voteCount;\n    }\n\n    // Store accounts that have voted\n    mapping(address => bool) public voters;\n    // Store Candidates\n    // Fetch Candidate\n    mapping(uint => Candidate) public candidates;\n    // Store Candidates Count\n    uint public candidatesCount;\n\n    // voted event\n    event votedEvent (\n        uint indexed _candidateId\n    );\n\n    constructor () public {\n        addCandidate(\"Raju\",\"Bangladesh Awami League\");\n        addCandidate(\"sultan\",\"Bangladesh Nationalist Party\");\n        addCandidate(\"Solaiman\",\"Jatiya Party\");\n        addCandidate(\"Reja\",\"Jatiya Samajtantrik Dal\");\n        addCandidate(\"Abdullah\",\"Independents Party\");\n        \n    }\n\n    function addCandidate (string memory name,string memory party) private {\n        candidatesCount ++;\n        candidates[candidatesCount] = Candidate(candidatesCount, name,party, 0);\n    }\n\n    function vote (uint _candidateId) public {\n        // require that they haven't voted before\n        require(!voters[msg.sender]);\n\n        // require a valid candidate\n        require(_candidateId > 0 && _candidateId <= candidatesCount);\n\n        // record that voter has voted\n        voters[msg.sender] = true;\n\n        // update candidate vote Count\n        candidates[_candidateId].voteCount ++;\n\n        // trigger voted event\n        emit votedEvent(_candidateId);\n    }\n}",
  "sourcePath": "C:\\Users\\ABDULLAH\\Desktop\\Final Project\\BlockVote-master\\BlockVote-master\\contracts\\Election.sol",
  "compiler": {
    "name": "solc",
    "version": "0.5.16+commit.9c3226ce.Emscripten.clang"
  },
  "schemaVersion": "3.4.8",
  "updatedAt": "2022-08-07T12:07:16.725Z",
  "networkType": "ethereum",
  "devdoc": {
    "methods": {}
  },
  "userdoc": {
    "methods": {}
  }
}